{
  "contractName": "PokePoke",
  "abi": [
    {
      "inputs": [],
      "name": "SelfPokeAttempted",
      "type": "error"
    },
    {
      "anonymous": false,
      "inputs": [
        {
          "indexed": false,
          "internalType": "uint256",
          "name": "timestamp",
          "type": "uint256"
        },
        {
          "indexed": true,
          "internalType": "address",
          "name": "to",
          "type": "address"
        },
        {
          "indexed": true,
          "internalType": "address",
          "name": "from",
          "type": "address"
        }
      ],
      "name": "PokeEvent",
      "type": "event"
    },
    {
      "inputs": [
        {
          "internalType": "address",
          "name": "_pokeRecipient",
          "type": "address"
        }
      ],
      "name": "poke",
      "outputs": [],
      "stateMutability": "nonpayable",
      "type": "function"
    }
  ],
  "bytecode": "0x608060405234801561001057600080fd5b50610214806100206000396000f3fe608060405234801561001057600080fd5b506004361061002b5760003560e01c8063b1a997ac14610030575b600080fd5b61004a6004803603810190610045919061017d565b61004c565b005b8073ffffffffffffffffffffffffffffffffffffffff163373ffffffffffffffffffffffffffffffffffffffff1614156100b2576040517fa420258700000000000000000000000000000000000000000000000000000000815260040160405180910390fd5b3373ffffffffffffffffffffffffffffffffffffffff168173ffffffffffffffffffffffffffffffffffffffff167f82e947d1a493472a828a3df4772c8f4042da0596c2afe6bf5cd4d28e56680a7b4260405161010f91906101c3565b60405180910390a350565b600080fd5b600073ffffffffffffffffffffffffffffffffffffffff82169050919050565b600061014a8261011f565b9050919050565b61015a8161013f565b811461016557600080fd5b50565b60008135905061017781610151565b92915050565b6000602082840312156101935761019261011a565b5b60006101a184828501610168565b91505092915050565b6000819050919050565b6101bd816101aa565b82525050565b60006020820190506101d860008301846101b4565b9291505056fea26469706673582212201cd1c00bb43d7e9cc1e04d852ad2e2e8f1aab0ebfc0ac0147f18735038f056f964736f6c63430008090033",
  "immutableReferences": {},
  "source": "// SPDX-License-Identifier: MIT\r\npragma solidity >=0.7.0 <0.9.0;\r\n\r\n/**\r\n * @title A framework for decentralized poking\r\n * @author Levi Hicks\r\n */\r\ncontract PokePoke {\r\n    event PokeEvent (\r\n        uint timestamp,\r\n        address indexed to,\r\n        address indexed from\r\n    );\r\n\r\n    /// Self-poking not allowed.\r\n    error SelfPokeAttempted();\r\n    \r\n    /// @notice Pokes an account\r\n    /// @param _pokeRecipient The recipient of the poke\r\n    function poke(address _pokeRecipient) public {\r\n        if (msg.sender == _pokeRecipient)\r\n          revert SelfPokeAttempted();\r\n        emit PokeEvent(block.timestamp, _pokeRecipient, msg.sender);\r\n    }\r\n}",
  "sourcePath": "C:\\Users\\lvhic\\Documents\\webApps\\poke-poke-contracts\\contracts\\PokePoke.sol",
  "compiler": {
    "name": "solc",
    "version": "0.8.9+commit.e5eed63a.Emscripten.clang"
  },
  "schemaVersion": "3.4.3",
  "updatedAt": "2021-12-02T02:03:03.404Z",
  "networkType": "ethereum",
  "devdoc": {
    "author": "Levi Hicks",
    "kind": "dev",
    "methods": {
      "poke(address)": {
        "params": {
          "_pokeRecipient": "The recipient of the poke"
        }
      }
    },
    "title": "A framework for decentralized poking",
    "version": 1
  },
  "userdoc": {
    "errors": {
      "SelfPokeAttempted()": [
        {
          "notice": "Self-poking not allowed."
        }
      ]
    },
    "kind": "user",
    "methods": {
      "poke(address)": {
        "notice": "Pokes an account"
      }
    },
    "version": 1
  }
}