{
  "contractName": "PokePoke",
  "abi": [
    {
      "inputs": [],
      "name": "SelfPokeAttempted",
      "type": "error"
    },
    {
      "anonymous": false,
      "inputs": [
        {
          "components": [
            {
              "internalType": "uint256",
              "name": "timestamp",
              "type": "uint256"
            },
            {
              "internalType": "address",
              "name": "recipient",
              "type": "address"
            },
            {
              "internalType": "address",
              "name": "pokedBy",
              "type": "address"
            }
          ],
          "indexed": false,
          "internalType": "struct PokePoke.Poke",
          "name": "pokeData",
          "type": "tuple"
        }
      ],
      "name": "PokeEvent",
      "type": "event"
    },
    {
      "inputs": [
        {
          "internalType": "address",
          "name": "",
          "type": "address"
        },
        {
          "internalType": "uint256",
          "name": "",
          "type": "uint256"
        }
      ],
      "name": "pokes",
      "outputs": [
        {
          "internalType": "uint256",
          "name": "timestamp",
          "type": "uint256"
        },
        {
          "internalType": "address",
          "name": "recipient",
          "type": "address"
        },
        {
          "internalType": "address",
          "name": "pokedBy",
          "type": "address"
        }
      ],
      "stateMutability": "view",
      "type": "function",
      "constant": true
    },
    {
      "inputs": [
        {
          "internalType": "address",
          "name": "_pokeRecipient",
          "type": "address"
        }
      ],
      "name": "poke",
      "outputs": [],
      "stateMutability": "nonpayable",
      "type": "function"
    },
    {
      "inputs": [
        {
          "internalType": "address",
          "name": "_addr",
          "type": "address"
        }
      ],
      "name": "viewPokes",
      "outputs": [
        {
          "components": [
            {
              "internalType": "uint256",
              "name": "timestamp",
              "type": "uint256"
            },
            {
              "internalType": "address",
              "name": "recipient",
              "type": "address"
            },
            {
              "internalType": "address",
              "name": "pokedBy",
              "type": "address"
            }
          ],
          "internalType": "struct PokePoke.Poke[]",
          "name": "",
          "type": "tuple[]"
        }
      ],
      "stateMutability": "view",
      "type": "function",
      "constant": true
    }
  ],
  "bytecode": "0x608060405234801561001057600080fd5b506108ad806100206000396000f3fe608060405234801561001057600080fd5b50600436106100415760003560e01c80637c10276b14610046578063b1a997ac14610078578063e877dbb014610094575b600080fd5b610060600480360381019061005b9190610627565b6100c4565b60405161006f93929190610685565b60405180910390f35b610092600480360381019061008d91906106bc565b61014b565b005b6100ae60048036038101906100a991906106bc565b61043b565b6040516100bb91906107f8565b60405180910390f35b600060205281600052604060002081815481106100e057600080fd5b9060005260206000209060030201600091509150508060000154908060010160009054906101000a900473ffffffffffffffffffffffffffffffffffffffff16908060020160009054906101000a900473ffffffffffffffffffffffffffffffffffffffff16905083565b8073ffffffffffffffffffffffffffffffffffffffff163373ffffffffffffffffffffffffffffffffffffffff1614156101b1576040517fa420258700000000000000000000000000000000000000000000000000000000815260040160405180910390fd5b600060405180606001604052804281526020018373ffffffffffffffffffffffffffffffffffffffff1681526020013373ffffffffffffffffffffffffffffffffffffffff1681525090506000808373ffffffffffffffffffffffffffffffffffffffff1673ffffffffffffffffffffffffffffffffffffffff1681526020019081526020016000208190806001815401808255809150506001900390600052602060002090600302016000909190919091506000820151816000015560208201518160010160006101000a81548173ffffffffffffffffffffffffffffffffffffffff021916908373ffffffffffffffffffffffffffffffffffffffff16021790555060408201518160020160006101000a81548173ffffffffffffffffffffffffffffffffffffffff021916908373ffffffffffffffffffffffffffffffffffffffff16021790555050506000803373ffffffffffffffffffffffffffffffffffffffff1673ffffffffffffffffffffffffffffffffffffffff1681526020019081526020016000208190806001815401808255809150506001900390600052602060002090600302016000909190919091506000820151816000015560208201518160010160006101000a81548173ffffffffffffffffffffffffffffffffffffffff021916908373ffffffffffffffffffffffffffffffffffffffff16021790555060408201518160020160006101000a81548173ffffffffffffffffffffffffffffffffffffffff021916908373ffffffffffffffffffffffffffffffffffffffff16021790555050507ffe0735e4075fd0fc5cbe9862ec7713926530ca2194b4b767b679a0541ef1ceee8160405161042f919061085c565b60405180910390a15050565b60606000808373ffffffffffffffffffffffffffffffffffffffff1673ffffffffffffffffffffffffffffffffffffffff168152602001908152602001600020805480602002602001604051908101604052809291908181526020016000905b828210156105835783829060005260206000209060030201604051806060016040529081600082015481526020016001820160009054906101000a900473ffffffffffffffffffffffffffffffffffffffff1673ffffffffffffffffffffffffffffffffffffffff1673ffffffffffffffffffffffffffffffffffffffff1681526020016002820160009054906101000a900473ffffffffffffffffffffffffffffffffffffffff1673ffffffffffffffffffffffffffffffffffffffff1673ffffffffffffffffffffffffffffffffffffffff16815250508152602001906001019061049b565b505050509050919050565b600080fd5b600073ffffffffffffffffffffffffffffffffffffffff82169050919050565b60006105be82610593565b9050919050565b6105ce816105b3565b81146105d957600080fd5b50565b6000813590506105eb816105c5565b92915050565b6000819050919050565b610604816105f1565b811461060f57600080fd5b50565b600081359050610621816105fb565b92915050565b6000806040838503121561063e5761063d61058e565b5b600061064c858286016105dc565b925050602061065d85828601610612565b9150509250929050565b610670816105f1565b82525050565b61067f816105b3565b82525050565b600060608201905061069a6000830186610667565b6106a76020830185610676565b6106b46040830184610676565b949350505050565b6000602082840312156106d2576106d161058e565b5b60006106e0848285016105dc565b91505092915050565b600081519050919050565b600082825260208201905092915050565b6000819050602082019050919050565b61071e816105f1565b82525050565b61072d816105b3565b82525050565b6060820160008201516107496000850182610715565b50602082015161075c6020850182610724565b50604082015161076f6040850182610724565b50505050565b60006107818383610733565b60608301905092915050565b6000602082019050919050565b60006107a5826106e9565b6107af81856106f4565b93506107ba83610705565b8060005b838110156107eb5781516107d28882610775565b97506107dd8361078d565b9250506001810190506107be565b5085935050505092915050565b60006020820190508181036000830152610812818461079a565b905092915050565b6060820160008201516108306000850182610715565b5060208201516108436020850182610724565b5060408201516108566040850182610724565b50505050565b6000606082019050610871600083018461081a565b9291505056fea2646970667358221220c94858bc6f07eecc9ff77f3e77908d30b810cc7a5788b1ade21c5d79b31f9c8264736f6c63430008090033",
  "immutableReferences": {},
  "source": "// SPDX-License-Identifier: MIT\r\npragma solidity >=0.7.0 <0.9.0;\r\n\r\n/**\r\n * @title A framework for decentralized poking\r\n * @author Levi Hicks\r\n */\r\ncontract PokePoke {\r\n    struct Poke {\r\n        uint timestamp; // block timestamp of the moment the poke occurred\r\n        address recipient; // who received the poke\r\n        address pokedBy; // the sender of the poke\r\n    }\r\n\r\n    event PokeEvent (\r\n        Poke pokeData\r\n    );\r\n\r\n    /// Self-poking not allowed.\r\n    error SelfPokeAttempted();\r\n\r\n    mapping(address => Poke[]) public pokes;\r\n    \r\n    /// @notice Pokes an account\r\n    /// @param _pokeRecipient The recipient of the poke\r\n    function poke(address _pokeRecipient) public {\r\n        if (msg.sender == _pokeRecipient)\r\n          revert SelfPokeAttempted();\r\n\r\n        Poke memory pokeData = Poke(block.timestamp, _pokeRecipient, msg.sender);\r\n        pokes[_pokeRecipient].push(pokeData);\r\n        pokes[msg.sender].push(pokeData);\r\n        emit PokeEvent(pokeData);\r\n    }\r\n    \r\n    /// @notice Returns array of pokes received for an address\r\n    /// @param _addr The address to view pokes for\r\n    /// @return The array of pokes received\r\n    function viewPokes(address _addr) view public returns (Poke[] memory) {\r\n        return pokes[_addr];\r\n    }\r\n}",
  "sourcePath": "C:\\Users\\lvhic\\Documents\\webApps\\poke-poke-contracts\\contracts\\PokePoke.sol",
  "compiler": {
    "name": "solc",
    "version": "0.8.9+commit.e5eed63a.Emscripten.clang"
  },
  "schemaVersion": "3.4.3",
  "updatedAt": "2021-11-27T23:06:33.352Z",
  "networkType": "ethereum",
  "devdoc": {
    "author": "Levi Hicks",
    "kind": "dev",
    "methods": {
      "poke(address)": {
        "params": {
          "_pokeRecipient": "The recipient of the poke"
        }
      },
      "viewPokes(address)": {
        "params": {
          "_addr": "The address to view pokes for"
        },
        "returns": {
          "_0": "The array of pokes received"
        }
      }
    },
    "title": "A framework for decentralized poking",
    "version": 1
  },
  "userdoc": {
    "errors": {
      "SelfPokeAttempted()": [
        {
          "notice": "Self-poking not allowed."
        }
      ]
    },
    "kind": "user",
    "methods": {
      "poke(address)": {
        "notice": "Pokes an account"
      },
      "viewPokes(address)": {
        "notice": "Returns array of pokes received for an address"
      }
    },
    "version": 1
  }
}